{
  "abi": [
    {
      "type": "constructor",
      "inputs": [
        {
          "name": "_tokenAddress",
          "type": "address",
          "internalType": "address"
        }
      ],
      "stateMutability": "nonpayable"
    },
    {
      "type": "receive",
      "stateMutability": "payable"
    },
    {
      "type": "function",
      "name": "activity",
      "inputs": [
        {
          "name": "",
          "type": "uint256",
          "internalType": "uint256"
        }
      ],
      "outputs": [
        {
          "name": "id",
          "type": "uint256",
          "internalType": "uint256"
        },
        {
          "name": "level",
          "type": "uint256",
          "internalType": "uint256"
        }
      ],
      "stateMutability": "view"
    },
    {
      "type": "function",
      "name": "directTeam",
      "inputs": [
        {
          "name": "",
          "type": "uint256",
          "internalType": "uint256"
        },
        {
          "name": "",
          "type": "uint256",
          "internalType": "uint256"
        }
      ],
      "outputs": [
        {
          "name": "",
          "type": "uint256",
          "internalType": "uint256"
        }
      ],
      "stateMutability": "view"
    },
    {
      "type": "function",
      "name": "distributeDividend",
      "inputs": [],
      "outputs": [],
      "stateMutability": "nonpayable"
    },
    {
      "type": "function",
      "name": "dividendLastDist",
      "inputs": [],
      "outputs": [
        {
          "name": "",
          "type": "uint256",
          "internalType": "uint256"
        }
      ],
      "stateMutability": "view"
    },
    {
      "type": "function",
      "name": "dividendUsers",
      "inputs": [
        {
          "name": "",
          "type": "uint256",
          "internalType": "uint256"
        },
        {
          "name": "",
          "type": "uint256",
          "internalType": "uint256"
        }
      ],
      "outputs": [
        {
          "name": "",
          "type": "uint256",
          "internalType": "uint256"
        }
      ],
      "stateMutability": "view"
    },
    {
      "type": "function",
      "name": "getDirectTeamUsers",
      "inputs": [
        {
          "name": "_user",
          "type": "uint256",
          "internalType": "uint256"
        }
      ],
      "outputs": [
        {
          "name": "",
          "type": "tuple[]",
          "internalType": "struct ByForexInv.User[]",
          "components": [
            {
              "name": "account",
              "type": "address",
              "internalType": "address"
            },
            {
              "name": "id",
              "type": "uint256",
              "internalType": "uint256"
            },
            {
              "name": "referrer",
              "type": "uint256",
              "internalType": "uint256"
            },
            {
              "name": "upline",
              "type": "uint256",
              "internalType": "uint256"
            },
            {
              "name": "start",
              "type": "uint256",
              "internalType": "uint256"
            },
            {
              "name": "level",
              "type": "uint256",
              "internalType": "uint256"
            },
            {
              "name": "directTeam",
              "type": "uint256",
              "internalType": "uint256"
            },
            {
              "name": "directTeamVolume",
              "type": "uint256",
              "internalType": "uint256"
            },
            {
              "name": "totalMatrixTeam",
              "type": "uint256",
              "internalType": "uint256"
            },
            {
              "name": "totalIncome",
              "type": "uint256",
              "internalType": "uint256"
            },
            {
              "name": "totalDeposit",
              "type": "uint256",
              "internalType": "uint256"
            },
            {
              "name": "referralIncome",
              "type": "uint256",
              "internalType": "uint256"
            },
            {
              "name": "levelIncome",
              "type": "uint256",
              "internalType": "uint256"
            },
            {
              "name": "income",
              "type": "uint256[12]",
              "internalType": "uint256[12]"
            },
            {
              "name": "dividendIncome",
              "type": "uint256[4]",
              "internalType": "uint256[4]"
            }
          ]
        }
      ],
      "stateMutability": "view"
    },
    {
      "type": "function",
      "name": "getDividendIncome",
      "inputs": [
        {
          "name": "_id",
          "type": "uint256",
          "internalType": "uint256"
        }
      ],
      "outputs": [
        {
          "name": "",
          "type": "uint256[4]",
          "internalType": "uint256[4]"
        }
      ],
      "stateMutability": "view"
    },
    {
      "type": "function",
      "name": "getDividendPool",
      "inputs": [],
      "outputs": [
        {
          "name": "",
          "type": "uint256[12]",
          "internalType": "uint256[12]"
        }
      ],
      "stateMutability": "view"
    },
    {
      "type": "function",
      "name": "getDividendTime",
      "inputs": [],
      "outputs": [
        {
          "name": "",
          "type": "uint256",
          "internalType": "uint256"
        }
      ],
      "stateMutability": "view"
    },
    {
      "type": "function",
      "name": "getIncome",
      "inputs": [
        {
          "name": "_user",
          "type": "uint256",
          "internalType": "uint256"
        }
      ],
      "outputs": [
        {
          "name": "",
          "type": "tuple[]",
          "internalType": "struct ByForexInv.Income[]",
          "components": [
            {
              "name": "id",
              "type": "uint256",
              "internalType": "uint256"
            },
            {
              "name": "layer",
              "type": "uint256",
              "internalType": "uint256"
            },
            {
              "name": "amount",
              "type": "uint256",
              "internalType": "uint256"
            },
            {
              "name": "time",
              "type": "uint256",
              "internalType": "uint256"
            }
          ]
        }
      ],
      "stateMutability": "view"
    },
    {
      "type": "function",
      "name": "getLevelIncome",
      "inputs": [
        {
          "name": "_id",
          "type": "uint256",
          "internalType": "uint256"
        }
      ],
      "outputs": [
        {
          "name": "",
          "type": "uint256[12]",
          "internalType": "uint256[12]"
        }
      ],
      "stateMutability": "view"
    },
    {
      "type": "function",
      "name": "getLevels",
      "inputs": [],
      "outputs": [
        {
          "name": "",
          "type": "uint256[12]",
          "internalType": "uint256[12]"
        }
      ],
      "stateMutability": "view"
    },
    {
      "type": "function",
      "name": "getMatrixDirect",
      "inputs": [
        {
          "name": "_user",
          "type": "uint256",
          "internalType": "uint256"
        }
      ],
      "outputs": [
        {
          "name": "_directs",
          "type": "uint256[2]",
          "internalType": "uint256[2]"
        }
      ],
      "stateMutability": "view"
    },
    {
      "type": "function",
      "name": "getMatrixUsers",
      "inputs": [
        {
          "name": "_user",
          "type": "uint256",
          "internalType": "uint256"
        },
        {
          "name": "_layer",
          "type": "uint256",
          "internalType": "uint256"
        }
      ],
      "outputs": [
        {
          "name": "",
          "type": "tuple[]",
          "internalType": "struct ByForexInv.User[]",
          "components": [
            {
              "name": "account",
              "type": "address",
              "internalType": "address"
            },
            {
              "name": "id",
              "type": "uint256",
              "internalType": "uint256"
            },
            {
              "name": "referrer",
              "type": "uint256",
              "internalType": "uint256"
            },
            {
              "name": "upline",
              "type": "uint256",
              "internalType": "uint256"
            },
            {
              "name": "start",
              "type": "uint256",
              "internalType": "uint256"
            },
            {
              "name": "level",
              "type": "uint256",
              "internalType": "uint256"
            },
            {
              "name": "directTeam",
              "type": "uint256",
              "internalType": "uint256"
            },
            {
              "name": "directTeamVolume",
              "type": "uint256",
              "internalType": "uint256"
            },
            {
              "name": "totalMatrixTeam",
              "type": "uint256",
              "internalType": "uint256"
            },
            {
              "name": "totalIncome",
              "type": "uint256",
              "internalType": "uint256"
            },
            {
              "name": "totalDeposit",
              "type": "uint256",
              "internalType": "uint256"
            },
            {
              "name": "referralIncome",
              "type": "uint256",
              "internalType": "uint256"
            },
            {
              "name": "levelIncome",
              "type": "uint256",
              "internalType": "uint256"
            },
            {
              "name": "income",
              "type": "uint256[12]",
              "internalType": "uint256[12]"
            },
            {
              "name": "dividendIncome",
              "type": "uint256[4]",
              "internalType": "uint256[4]"
            }
          ]
        }
      ],
      "stateMutability": "view"
    },
    {
      "type": "function",
      "name": "getRecentActivities",
      "inputs": [
        {
          "name": "_num",
          "type": "uint256",
          "internalType": "uint256"
        }
      ],
      "outputs": [
        {
          "name": "",
          "type": "tuple[]",
          "internalType": "struct ByForexInv.Activity[]",
          "components": [
            {
              "name": "id",
              "type": "uint256",
              "internalType": "uint256"
            },
            {
              "name": "level",
              "type": "uint256",
              "internalType": "uint256"
            }
          ]
        }
      ],
      "stateMutability": "view"
    },
    {
      "type": "function",
      "name": "globalUsers",
      "inputs": [
        {
          "name": "",
          "type": "uint256",
          "internalType": "uint256"
        }
      ],
      "outputs": [
        {
          "name": "",
          "type": "uint256",
          "internalType": "uint256"
        }
      ],
      "stateMutability": "view"
    },
    {
      "type": "function",
      "name": "id",
      "inputs": [
        {
          "name": "",
          "type": "address",
          "internalType": "address"
        }
      ],
      "outputs": [
        {
          "name": "",
          "type": "uint256",
          "internalType": "uint256"
        }
      ],
      "stateMutability": "view"
    },
    {
      "type": "function",
      "name": "incomeInfo",
      "inputs": [
        {
          "name": "",
          "type": "uint256",
          "internalType": "uint256"
        },
        {
          "name": "",
          "type": "uint256",
          "internalType": "uint256"
        }
      ],
      "outputs": [
        {
          "name": "id",
          "type": "uint256",
          "internalType": "uint256"
        },
        {
          "name": "layer",
          "type": "uint256",
          "internalType": "uint256"
        },
        {
          "name": "amount",
          "type": "uint256",
          "internalType": "uint256"
        },
        {
          "name": "time",
          "type": "uint256",
          "internalType": "uint256"
        }
      ],
      "stateMutability": "view"
    },
    {
      "type": "function",
      "name": "matrixDirect",
      "inputs": [
        {
          "name": "",
          "type": "uint256",
          "internalType": "uint256"
        }
      ],
      "outputs": [
        {
          "name": "",
          "type": "uint256",
          "internalType": "uint256"
        }
      ],
      "stateMutability": "view"
    },
    {
      "type": "function",
      "name": "register",
      "inputs": [
        {
          "name": "_ref",
          "type": "uint256",
          "internalType": "uint256"
        },
        {
          "name": "_newAcc",
          "type": "address",
          "internalType": "address"
        },
        {
          "name": "amt",
          "type": "uint256",
          "internalType": "uint256"
        }
      ],
      "outputs": [],
      "stateMutability": "nonpayable"
    },
    {
      "type": "function",
      "name": "startTime",
      "inputs": [],
      "outputs": [
        {
          "name": "",
          "type": "uint256",
          "internalType": "uint256"
        }
      ],
      "stateMutability": "view"
    },
    {
      "type": "function",
      "name": "teams",
      "inputs": [
        {
          "name": "",
          "type": "uint256",
          "internalType": "uint256"
        },
        {
          "name": "",
          "type": "uint256",
          "internalType": "uint256"
        },
        {
          "name": "",
          "type": "uint256",
          "internalType": "uint256"
        }
      ],
      "outputs": [
        {
          "name": "",
          "type": "uint256",
          "internalType": "uint256"
        }
      ],
      "stateMutability": "view"
    },
    {
      "type": "function",
      "name": "totalUsers",
      "inputs": [],
      "outputs": [
        {
          "name": "",
          "type": "uint256",
          "internalType": "uint256"
        }
      ],
      "stateMutability": "view"
    },
    {
      "type": "function",
      "name": "transferOwnership",
      "inputs": [
        {
          "name": "_a",
          "type": "address",
          "internalType": "address"
        }
      ],
      "outputs": [],
      "stateMutability": "nonpayable"
    },
    {
      "type": "function",
      "name": "transferOwnershipToZeroAddress",
      "inputs": [],
      "outputs": [],
      "stateMutability": "nonpayable"
    },
    {
      "type": "function",
      "name": "upgrade",
      "inputs": [
        {
          "name": "_id",
          "type": "uint256",
          "internalType": "uint256"
        },
        {
          "name": "_lvls",
          "type": "uint256",
          "internalType": "uint256"
        },
        {
          "name": "amt",
          "type": "uint256",
          "internalType": "uint256"
        }
      ],
      "outputs": [],
      "stateMutability": "nonpayable"
    },
    {
      "type": "function",
      "name": "usdttoken",
      "inputs": [],
      "outputs": [
        {
          "name": "",
          "type": "address",
          "internalType": "contract IERC20"
        }
      ],
      "stateMutability": "view"
    },
    {
      "type": "function",
      "name": "userInfo",
      "inputs": [
        {
          "name": "",
          "type": "uint256",
          "internalType": "uint256"
        }
      ],
      "outputs": [
        {
          "name": "account",
          "type": "address",
          "internalType": "address"
        },
        {
          "name": "id",
          "type": "uint256",
          "internalType": "uint256"
        },
        {
          "name": "referrer",
          "type": "uint256",
          "internalType": "uint256"
        },
        {
          "name": "upline",
          "type": "uint256",
          "internalType": "uint256"
        },
        {
          "name": "start",
          "type": "uint256",
          "internalType": "uint256"
        },
        {
          "name": "level",
          "type": "uint256",
          "internalType": "uint256"
        },
        {
          "name": "directTeam",
          "type": "uint256",
          "internalType": "uint256"
        },
        {
          "name": "directTeamVolume",
          "type": "uint256",
          "internalType": "uint256"
        },
        {
          "name": "totalMatrixTeam",
          "type": "uint256",
          "internalType": "uint256"
        },
        {
          "name": "totalIncome",
          "type": "uint256",
          "internalType": "uint256"
        },
        {
          "name": "totalDeposit",
          "type": "uint256",
          "internalType": "uint256"
        },
        {
          "name": "referralIncome",
          "type": "uint256",
          "internalType": "uint256"
        },
        {
          "name": "levelIncome",
          "type": "uint256",
          "internalType": "uint256"
        }
      ],
      "stateMutability": "view"
    }
  ],
  "bytecode": {
    "object": "0x6102006040526801158e460913d00000608090815268022b1c8c1227a0000060a0526804563918244f40000060c0526808ac7230489e80000060e052681158e460913d000000610100526822b1c8c1227a00000061012052684563918244f400000061014052688ac7230489e8000000610160526901158e460913d00000006101805269022b1c8c1227a00000006101a0526904563918244f400000006101c0526908ac7230489e800000006101e0526100bd90600590600c61016b565b506040805160808101825260008082526020820181905291810182905260608101919091526100f09060119060046101b4565b503480156100fd57600080fd5b50604051612b6f380380612b6f83398101604081905261011c916101fc565b6103e860035560048054336001600160a01b03199182168117909255600080548216909217909155426021819055601d55600280549091166001600160a01b039290921691909117905561022c565b82600c81019282156101a4579160200282015b828111156101a457825182906001600160501b031690559160200191906001019061017e565b506101b09291506101e7565b5090565b82600c81019282156101a4579160200282015b828111156101a4578251829060ff169055916020019190600101906101c7565b5b808211156101b057600081556001016101e8565b60006020828403121561020e57600080fd5b81516001600160a01b038116811461022557600080fd5b9392505050565b6129348061023b6000396000f3fe6080604052600436106101bb5760003560e01c80638955defb116100ec578063ee8f23281161008a578063f6abd4e911610064578063f6abd4e91461060e578063f6ef8f0a14610643578063fca247ac14610658578063fe1538d41461067857600080fd5b8063ee8f232814610589578063f2fde38b146105b6578063f442be98146105d657600080fd5b8063bff1f9e1116100c6578063bff1f9e11461051e578063c6f2522114610534578063d36b520314610549578063d48b2e8b1461056957600080fd5b80638955defb146104a4578063aac6b121146104d1578063b051a4fa146104fe57600080fd5b80635227cc1411610159578063673516b911610133578063673516b91461041f57806378e9792514610434578063857915101461044a57806388afbe3e1461047757600080fd5b80635227cc14146103bb57806358819abf146103e85780635aabf7f1146103ff57600080fd5b80633ff868ea116101955780633ff868ea146102605780634668bf71146102805780634f057e66146102ad57806351d70bc4146102c357600080fd5b80630c394a60146101c757806324f11c46146101f25780633beee9d31461022057600080fd5b366101c257005b600080fd5b3480156101d357600080fd5b506101dc610698565b6040516101e99190612402565b60405180910390f35b3480156101fe57600080fd5b5061021261020d366004612434565b6106d4565b6040519081526020016101e9565b34801561022c57600080fd5b5061024061023b366004612434565b610705565b6040805194855260208501939093529183015260608201526080016101e9565b34801561026c57600080fd5b5061021261027b366004612456565b61074b565b34801561028c57600080fd5b506102a061029b366004612456565b61076c565b6040516101e99190612498565b3480156102b957600080fd5b5061021260215481565b3480156102cf57600080fd5b5061034f6102de366004612456565b602260205260009081526040902080546001820154600283015460038401546004850154600586015460068701546007880154600889015460098a0154600a8b0154600b8c0154600c909c01546001600160a01b03909b169b999a989997989697959694959394929391929091908d565b604080516001600160a01b03909e168e5260208e019c909c529a8c019990995260608b019790975260808a019590955260a089019390935260c088019190915260e08701526101008601526101208501526101408401526101608301526101808201526101a0016101e9565b3480156103c757600080fd5b506103db6103d6366004612434565b6107bb565b6040516101e991906124c9565b3480156103f457600080fd5b506103fd6109d7565b005b34801561040b57600080fd5b5061021261041a3660046125c7565b610a39565b34801561042b57600080fd5b506101dc610a77565b34801561044057600080fd5b50610212601d5481565b34801561045657600080fd5b5061046a610465366004612456565b610aae565b6040516101e991906125f3565b34801561048357600080fd5b50610212610492366004612456565b60276020526000908152604090205481565b3480156104b057600080fd5b506102126104bf36600461266d565b60286020526000908152604090205481565b3480156104dd57600080fd5b506104f16104ec366004612456565b610b48565b6040516101e9919061268f565b34801561050a57600080fd5b506101dc610519366004612456565b610bcf565b34801561052a57600080fd5b50610212601e5481565b34801561054057600080fd5b50610212610c1e565b34801561055557600080fd5b506103db610564366004612456565b610c36565b34801561057557600080fd5b50610212610584366004612434565b610e2e565b34801561059557600080fd5b506105a96105a4366004612456565b610e49565b6040516101e991906126b7565b3480156105c257600080fd5b506103fd6105d136600461266d565b610feb565b3480156105e257600080fd5b506002546105f6906001600160a01b031681565b6040516001600160a01b0390911681526020016101e9565b34801561061a57600080fd5b5061062e610629366004612456565b611058565b604080519283526020830191909152016101e9565b34801561064f57600080fd5b506103fd611086565b34801561066457600080fd5b506103fd6106733660046126fb565b61146f565b34801561068457600080fd5b506103fd6106933660046125c7565b61185a565b6106a06122ca565b6040805161018081019182905290600590600c9082845b8154815260200190600101908083116106b7575050505050905090565b602660205281600052604060002081815481106106f057600080fd5b90600052602060002001600091509150505481565b6023602052816000526040600020818154811061072157600080fd5b60009182526020909120600490910201805460018201546002830154600390930154919450925084565b601f818154811061075b57600080fd5b600091825260209091200154905081565b6107746122e9565b6000828152602260205260409081902081516080810190925260190160048282826020028201915b81548152602001906001019080831161079c5750505050509050919050565b60008281526025602090815260408083208484529091528120546060919067ffffffffffffffff8111156107f1576107f1612731565b60405190808252806020026020018201604052801561082a57816020015b610817612307565b81526020019060019003908161080f5790505b50905060005b60008581526025602090815260408083208784529091529020548110156109cd5760008581526025602090815260408083208784529091528120805460229291908490811061088157610881612747565b6000918252602080832091909101548352828101939093526040918201902081516101e08101835281546001600160a01b031681526001820154938101939093526002810154838301526003810154606084015260048101546080840152600581015460a0840152600681015460c0840152600781015460e084015260088101546101008401526009810154610120840152600a810154610140840152600b810154610160840152600c808201546101808086019190915283519081019384905291926101a085019291600d85019182845b81548152602001906001019080831161095357505050918352505060408051608081019182905260209092019190601984019060049082845b81548152602001906001019080831161098c575050505050815250508282815181106109ba576109ba612747565b6020908102919091010152600101610830565b5090505b92915050565b6000546001600160a01b03163314610a275760405162461bcd60e51b815260206004820152600e60248201526d139bdd08105d5d1a1bdc9a5e995960921b60448201526064015b60405180910390fd5b600080546001600160a01b0319169055565b60256020528260005260406000206020528160005260406000208181548110610a6157600080fd5b9060005260206000200160009250925050505481565b610a7f6122ca565b604080516101808101918290526011805482529091600c906012602085018083116106b7575050505050905090565b606060236000838152602001908152602001600020805480602002602001604051908101604052809291908181526020016000905b82821015610b3d578382906000526020600020906004020160405180608001604052908160008201548152602001600182015481526020016002820154815260200160038201548152505081526020019060010190610ae3565b505050509050919050565b610b50612391565b60005b6000838152602560209081526040808320838052909152902054811015610bc95760008381526025602090815260408083208380529091529020805482908110610b9f57610b9f612747565b9060005260206000200154828260028110610bbc57610bbc612747565b6020020152600101610b53565b50919050565b610bd76122ca565b6000828152602260205260409081902081516101808101909252600d01600c82828260200282019181548152602001906001019080831161079c5750505050509050919050565b600062015180602154610c319190612773565b905090565b6000818152602660205260408120546060919067ffffffffffffffff811115610c6157610c61612731565b604051908082528060200260200182016040528015610c9a57816020015b610c87612307565b815260200190600190039081610c7f5790505b50905060005b600084815260266020526040902054811015610e275760008481526026602052604081208054602292919084908110610cdb57610cdb612747565b6000918252602080832091909101548352828101939093526040918201902081516101e08101835281546001600160a01b031681526001820154938101939093526002810154838301526003810154606084015260048101546080840152600581015460a0840152600681015460c0840152600781015460e084015260088101546101008401526009810154610120840152600a810154610140840152600b810154610160840152600c808201546101808086019190915283519081019384905291926101a085019291600d85019182845b815481526020019060010190808311610dad57505050918352505060408051608081019182905260209092019190601984019060049082845b815481526020019060010190808311610de657505050505081525050828281518110610e1457610e14612747565b6020908102919091010152600101610ca0565b5092915050565b6020805281600052604060002081815481106106f057600080fd5b606060008260248054905011610e6157602454610e63565b825b67ffffffffffffffff811115610e7b57610e7b612731565b604051908082528060200260200182016040528015610ec057816020015b6040805180820190915260008082526020820152815260200190600190039081610e995790505b50602454909150831015610f77576024546000905b602454610ee3908690612786565b811115610f70576024610ef7600183612786565b81548110610f0757610f07612747565b906000526020600020906002020160405180604001604052908160008201548152602001600182015481525050838381518110610f4657610f46612747565b6020908102919091010152610f5c600183612773565b915080610f6881612799565b915050610ed5565b50506109d1565b6024805480602002602001604051908101604052809291908181526020016000905b82821015610fdf57838290600052602060002090600202016040518060400160405290816000820154815260200160018201548152505081526020019060010190610f99565b50505050905092915050565b6000546001600160a01b031633146110365760405162461bcd60e51b815260206004820152600e60248201526d139bdd08105d5d1a1bdc9a5e995960921b6044820152606401610a1e565b600080546001600160a01b0319166001600160a01b0392909216919091179055565b6024818154811061106857600080fd5b60009182526020909120600290910201805460019091015490915082565b62015180602154426110989190612786565b10156110df5760405162461bcd60e51b8152602060048201526016602482015275151a5b595cdd195c081b9bdd0818dbdb5c1b195d195960521b6044820152606401610a1e565b60005b600c811015611468576000818152602080805260408083208054825181850281018501909352808352919290919083018282801561113f57602002820191906000526020600020905b81548152602001906001019080831161112b575b505050505090506000815111156113ff57600080825111611161576000611182565b8151601184600c811061117657611176612747565b015461118291906127b0565b905060005b82518110156113f85760025483516001600160a01b039091169063a9059cbb906022906000908790869081106111bf576111bf612747565b602090810291909101810151825281019190915260409081016000205490516001600160e01b031960e084901b1681526001600160a01b039091166004820152602481018590526044016020604051808303816000875af1158015611228573d6000803e3d6000fd5b505050506040513d601f19601f8201168201806040525081019061124c91906127d2565b50816022600085848151811061126457611264612747565b60200260200101518152602001908152602001600020600901600082825461128c9190612773565b925050819055506000602260008584815181106112ab576112ab612747565b6020908102919091018101518252810191909152604090810160002081516080810190925260190160048282826020028201915b8154815260200190600101908083116112df57505050505090508281866004811061130c5761130c612747565b6020020181815161131d9190612773565b91508181525050806022600086858151811061133b5761133b612747565b602002602001015181526020019081526020016000206019019060046113629291906123af565b506023600085848151811061137957611379612747565b60209081029190910181015182528181019290925260409081016000908120825160808101845261447e8152808501838152938101888152426060830190815283546001818101865594865296909420915160049096029091019485559251848201559151600284015551600390920191909155919091019050611187565b505061141c565b61141c601183600c811061141557611415612747565b0154611ca9565b601182600c811061142f5761142f612747565b0154600160008282546114429190612786565b9091555060009050601183600c811061145d5761145d612747565b0155506001016110e2565b5042602155565b600080546001600160a01b03163303611486575060015b6001600160a01b038316600090815260286020526040902054156114e15760405162461bcd60e51b8152602060048201526012602482015271105b1c9958591e48149959da5cdd195c995960721b6044820152606401610a1e565b600084815260226020526040902060040154151580611501575060035484145b6115405760405162461bcd60e51b815260206004820152601060248201526f24b73b30b634b2102932b332b93932b960811b6044820152606401610a1e565b6000601e5460016115519190612773565b60035461155e9190612773565b6001600160a01b0385166000908152602860209081526040808320849055838352602290915290206001810182905560055491925090836115d8578085146115d85760405162461bcd60e51b815260206004820152600d60248201526c696e76616c69642076616c756560981b6044820152606401610a1e565b6115e181611d2a565b6002820187905581546001600160a01b0319166001600160a01b03871617825560035487146116905760028201546000908152602260205260408120600601805460019290611631908490612773565b909155505060055460028301546000908152602260205260408120600701805490919061165f908490612773565b9091555050600282015460009081526026602090815260408220600180860154825491820183559184529190922001555b600180830154601f805492830181556000527fa03837a25210ee280c2113ff4b77ca23440b19d4866cca721c801278fd08d80790910155601e54158015906116de5750600354826002015414155b156116f5576116f582600101548360020154611dd6565b4282600401819055506001601e60008282546117119190612773565b92505081905550600182600501600082825461172d9190612773565b9091555050600554600a83018054600090611749908490612773565b90915550506002546040516323b872dd60e01b8152336004820152306024820152604481018390526001600160a01b03909116906323b872dd906064016020604051808303816000875af11580156117a5573d6000803e3d6000fd5b505050506040513d601f19601f820116820180604052508101906117c991906127d2565b506117d5836001611fe7565b506040805180820190915260018281015482526005909201546020820190815260248054938401815560005290517f7cd332d19b93bcabe3cce7ca0c18a052f57e5fd03b4758a09f30f5ddc4b22ec4600290930292830155517f7cd332d19b93bcabe3cce7ca0c18a052f57e5fd03b4758a09f30f5ddc4b22ec5909101555050505050565b600080546001600160a01b03163303611871575060015b600084815260226020526040812060028101549091036118c45760405162461bcd60e51b815260206004820152600e60248201526d149959da5cdd195c88119a5c9cdd60921b6044820152606401610a1e565b600084116119075760405162461bcd60e51b815260206004820152601060248201526f135d5cdd081899480acc4813195d995b60821b6044820152606401610a1e565b600c8482600501546119199190612773565b11156119575760405162461bcd60e51b815260206004820152600d60248201526c13585e1a5b5d5b4813195d995b609a1b6044820152606401610a1e565b60058101546000815b61196a8784612773565b81101561199a57600581600c811061198457611984612747565b01546119909083612773565b9150600101611960565b5080846119e4578086146119e45760405162461bcd60e51b8152602060048201526011602482015270496e76616c696420626e622056616c756560781b6044820152606401610a1e565b6002546040516323b872dd60e01b8152336004820152306024820152604481018390526001600160a01b03909116906323b872dd906064016020604051808303816000875af1158015611a3b573d6000803e3d6000fd5b505050506040513d601f19601f82011682018060405250810190611a5f91906127d2565b50611a6981611d2a565b600284015460009081526022602052604081206007018054839290611a8f908490612773565b909155505060068401546007850154845b611aaa8a87612773565b811015611c045760008760050154118015611ac3575087155b15611ad257611ad28b82611fe7565b6001876005016000828254611ae79190612773565b909155505060028310801590611b065750681b1ae4d6e2ef5000008210155b15611b30576005870154600090815260208080526040822080546001810182559083529120018b90555b60048310158015611b4a5750683635c9adc5dea000008210155b15611b74576005870154600090815260208080526040822080546001810182559083529120018b90555b60088310158015611b8e5750686c6b935b8bbd4000008210155b15611bb8576005870154600090815260208080526040822080546001810182559083529120018b90555b60108310158015611bd2575068d8d726b7177a8000008210155b15611bfc576005870154600090815260208080526040822080546001810182559083529120018b90555b600101611aa0565b508386600a016000828254611c199190612773565b90915550506040805180820190915260018781015482526005909701546020820190815260248054988901815560005290517f7cd332d19b93bcabe3cce7ca0c18a052f57e5fd03b4758a09f30f5ddc4b22ec4600290980297880155517f7cd332d19b93bcabe3cce7ca0c18a052f57e5fd03b4758a09f30f5ddc4b22ec590960195909555505050505050505050565b6002546004805460405163a9059cbb60e01b81526001600160a01b0391821692810192909252602482018490529091169063a9059cbb906044016020604051808303816000875af1158015611d02573d6000803e3d6000fd5b505050506040513d601f19601f82011682018060405250810190611d2691906127d2565b5050565b60006064611d398360056127f4565b611d4391906127b0565b90508060116000016000828254611d5a9190612773565b9091555081905060116001016000828254611d759190612773565b9091555081905060116002016000828254611d909190612773565b9091555081905060116003016000828254611dab9190612773565b90915550611dbc90508160046127f4565b60016000828254611dcd9190612773565b90915550505050565b600081815260276020526040812054819060021115611e2f57600084815260226020908152604080832060030186905585835260279091528120805460019290611e21908490612773565b90915550839150611f5a9050565b60005b6018811015611f585782611f5857611e4b816002612773565b611e569060026128f2565b600085815260256020526040812090611e70846001612773565b81526020810191909152604001600020541015611f505760005b6000858152602560209081526040808320858452909152902054811015611f4e5783611f4e5760008581526025602090815260408083208584529091528120805483908110611edb57611edb612747565b90600052602060002001549050600260276000838152602001908152602001600020541015611f4557600087815260226020908152604080832060030184905583835260279091528120805460019290611f36908490612773565b92505081905550809350600194505b50600101611e8a565b505b600101611e32565b505b60005b6018811015611fe057811580611f74575060035482145b611fe0576000828152602260205260408120600801805460019290611f9a908490612773565b9091555050600082815260256020908152604080832084845282528083208054600181810183559185528385200189905594835260229091529020600301549101611f5d565b5050505050565b600082815260226020526040812060038101546002909101549091600584600c811061201557612015612747565b01549050600060646120288360506127f4565b61203291906127b0565b90506000805b60188110156122b25761204c600188612786565b81101561206c5760009586526022602052604090952060030154946122aa565b85158061207a575060035486145b6122b2578681101561209f5760009586526022602052604090952060030154946122aa565b600086815260226020526040902060050154871015612295576002546000878152602260205260409081902054905163a9059cbb60e01b81526001600160a01b0391821660048201526024810186905291169063a9059cbb906044016020604051808303816000875af115801561211a573d6000803e3d6000fd5b505050506040513d601f19601f8201168201806040525081019061213e91906127d2565b50600587600c811061215257612152612747565b015460008781526022602052604081206009018054909190612175908490612773565b909155506005905087600c811061218e5761218e612747565b01546000878152602260205260408120600c0180549091906121b1908490612773565b909155506005905087600c81106121ca576121ca612747565b01546000878152602260205260409020600d0188600c81106121ee576121ee612747565b0160008282546121fe9190612773565b90915550506000868152602360209081526040918290208251608081019093528a835291908101612230846001612773565b815260200160058a600c811061224857612248612747565b0154815242602091820152825460018181018555600094855293829020835160049092020190815590820151818401556040820151600282015560609091015160039091015591506122b2565b60009586526022602052604090952060030154945b600101612038565b50806122c1576122c182611ca9565b50505050505050565b604051806101800160405280600c906020820280368337509192915050565b60405180608001604052806004906020820280368337509192915050565b604051806101e0016040528060006001600160a01b0316815260200160008152602001600081526020016000815260200160008152602001600081526020016000815260200160008152602001600081526020016000815260200160008152602001600081526020016000815260200161237f6122ca565b815260200161238c6122e9565b905290565b60405180604001604052806002906020820280368337509192915050565b82600481019282156123dd579160200282015b828111156123dd5782518255916020019190600101906123c2565b506123e99291506123ed565b5090565b5b808211156123e957600081556001016123ee565b6101808101818360005b600c81101561242b57815183526020928301929091019060010161240c565b50505092915050565b6000806040838503121561244757600080fd5b50508035926020909101359150565b60006020828403121561246857600080fd5b5035919050565b8060005b6004811015612492578151845260209384019390910190600101612473565b50505050565b608081016109d1828461246f565b8060005b600c8110156124925781518452602093840193909101906001016124aa565b602080825282518282018190526000918401906040840190835b818110156125bc57835180516001600160a01b031684526020810151602085015260408101516040850152606081015160608501526080810151608085015260a081015160a085015260c081015160c085015260e081015160e08501526101008101516101008501526101208101516101208501526101408101516101408501526101608101516101608501526101808101516101808501526101a08101516125906101a08601826124a6565b506101c001516125a461032085018261246f565b50602093909301926103a092909201916001016124e3565b509095945050505050565b6000806000606084860312156125dc57600080fd5b505081359360208301359350604090920135919050565b602080825282518282018190526000918401906040840190835b818110156125bc578351805184526020810151602085015260408101516040850152606081015160608501525060808301925060208401935060018101905061260d565b80356001600160a01b038116811461266857600080fd5b919050565b60006020828403121561267f57600080fd5b61268882612651565b9392505050565b60408101818360005b600281101561242b578151835260209283019290910190600101612698565b602080825282518282018190526000918401906040840190835b818110156125bc5783518051845260209081015181850152909301926040909201916001016126d1565b60008060006060848603121561271057600080fd5b8335925061272060208501612651565b929592945050506040919091013590565b634e487b7160e01b600052604160045260246000fd5b634e487b7160e01b600052603260045260246000fd5b634e487b7160e01b600052601160045260246000fd5b808201808211156109d1576109d161275d565b818103818111156109d1576109d161275d565b6000816127a8576127a861275d565b506000190190565b6000826127cd57634e487b7160e01b600052601260045260246000fd5b500490565b6000602082840312156127e457600080fd5b8151801515811461268857600080fd5b80820281158282048414176109d1576109d161275d565b6001815b60018411156128465780850481111561282a5761282a61275d565b600184161561283857908102905b60019390931c92800261280f565b935093915050565b60008261285d575060016109d1565b8161286a575060006109d1565b8160018114612880576002811461288a576128a6565b60019150506109d1565b60ff84111561289b5761289b61275d565b50506001821b6109d1565b5060208310610133831016604e8410600b84101617156128c9575081810a6109d1565b6128d6600019848461280b565b80600019048211156128ea576128ea61275d565b029392505050565b6000612688838361284e56fea2646970667358221220a30428c4afd3fb3cb118fc2df6c013643f93e8abd05a276d877de5fbddf92bb564736f6c634300081b0033",
    "linkReferences": {}
  },
  "methodIdentifiers": {
    "activity(uint256)": "f6abd4e9",
    "directTeam(uint256,uint256)": "24f11c46",
    "distributeDividend()": "f6ef8f0a",
    "dividendLastDist()": "4f057e66",
    "dividendUsers(uint256,uint256)": "d48b2e8b",
    "getDirectTeamUsers(uint256)": "d36b5203",
    "getDividendIncome(uint256)": "4668bf71",
    "getDividendPool()": "673516b9",
    "getDividendTime()": "c6f25221",
    "getIncome(uint256)": "85791510",
    "getLevelIncome(uint256)": "b051a4fa",
    "getLevels()": "0c394a60",
    "getMatrixDirect(uint256)": "aac6b121",
    "getMatrixUsers(uint256,uint256)": "5227cc14",
    "getRecentActivities(uint256)": "ee8f2328",
    "globalUsers(uint256)": "3ff868ea",
    "id(address)": "8955defb",
    "incomeInfo(uint256,uint256)": "3beee9d3",
    "matrixDirect(uint256)": "88afbe3e",
    "register(uint256,address,uint256)": "fca247ac",
    "startTime()": "78e97925",
    "teams(uint256,uint256,uint256)": "5aabf7f1",
    "totalUsers()": "bff1f9e1",
    "transferOwnership(address)": "f2fde38b",
    "transferOwnershipToZeroAddress()": "58819abf",
    "upgrade(uint256,uint256,uint256)": "fe1538d4",
    "usdttoken()": "f442be98",
    "userInfo(uint256)": "51d70bc4"
  },
  "id": 25
}